:020000020000FC
:1000000007E800937A0000E400937C000FEF009370
:10001000240000930A0140E400240E9462000E9430
:100020001E008823E1F3082E0E94620043E60E942E
:10003000560040E0042E0E946200F1CF00917A0049
:10004000006400937A0000917A000074E1F7009157
:1000500078001091790088279927103039F01130F5
:1000600089F01230A9F01330E1F00895023324F042
:100070000A3F2CF00AC0089581E091E0089582E0E3
:1000800092E00895023C0CF006C084E094E00895EC
:100090000C380CF003C088E098E0089580E190E10E
:1000A0000895083EDCF380E090E00895000050E100
:1000B000000060E100006A95E9F75A95C9F74A9592
:1000C000A9F7089531E020E870E0092E032249F4F1
:1000D000303109F40DC0330F26952695303141F0AB
:1000E000F4CF722B26952695330F303109F0EDCFE2
:1000F00070930B0170E030E128E0092E032239F4FF
:10010000303809F40BC0330F26952695F6CF722BA5
:1001100026952695330F303409F0EFCF70932500E4
:02012000089540
:00000001FF
