:020000020000FC
:100000000C948D010F932F933F93009132000F7D3D
:1000100024FD00620093340000912C00077F25FD31
:10002000086000932E0000910001077F26FD086004
:1000300000930201009100010F7E27FD00610093F3
:1000400002010091000100640093020131E00E946E
:100050005001009100010F7B009302013F912F910D
:100060000F9108952F933F930F93DF93CF93DEB7B4
:10007000CDB729850E94020032E30E9450012295EB
:100080000E94020032E30E945001CF91DF910F9154
:100090003F912F9108950F933F932F93DF93CF9329
:1000A000DEB7CDB72985009100010F7D00930201D5
:1000B0002F930E9432002F91243018F432E00E94D6
:1000C0005A01CF91DF912F913F910F9108950F9396
:1000D0002F93DF93CF93DEB7CDB728850091000132
:1000E0000062009302012F930E9432002F91009131
:1000F0000102039500930102CF91DF912F910F919F
:1001000008950F931F93DF93CF93FF93EF93DEB781
:10011000CDB7FB85EA851191103029F01F930E941D
:1001200067001F91F8CFEF91FF91CF91DF911F9161
:100130000F9108950F931F93DF93CF93DEB7CDB741
:100140000885198511301CF011E00C94AA000331C8
:100150000CF003E11093000200930102113019F436
:1001600010EC0C94B40010E8010F0F930E944B00A8
:100170000F91CF91DF911F910F9108950F9301E09F
:100180000F930E944B000F910027009300020093F1
:1001900001020F9108950F932F933F930091330025
:1001A000006200933300009132000F7D0093340011
:1001B00000912D00086000932D0000912C00077F16
:1001C00000932E000091010108600093010100914D
:1001D0000001077F0093020100910101006100937B
:1001E0000101009100010F7E0093020100910101C5
:1001F000006200930101009100010F7D0093020154
:1002000000910101006400930101009100010F7B46
:10021000009302013FE00E945A0135E00E945A011A
:1002200020E30E94020035E00E945A0120E30E9470
:10023000020057E03FE00E945A015A95D9F720E3A7
:100240000E94020032E30E94500120E20E9402005C
:1002500032E30E94500108E20F930E944B000F917D
:1002600008E00F930E944B000F9101E00F930E9452
:100270004B000F9132E00E945A0106E00F930E945A
:100280004B000F910CE00F930E944B000F91002741
:1002900000930002009301023F912F910F91089566
:1002A0000F933F9305E00A95F1F73A95D9F73F91FF
:1002B0000F9108950F931F933F93DF93CF930DEF0B
:1002C000309F012D0295007FD02F002D0295102F19
:1002D000007F1F70C02FD12B2197F1F7CF91DF91B5
:1002E0003F911F910F9108950F93FF93EF93BF9349
:1002F000AF93DF93CF93DEB7CDB7EB85FC85AD85AC
:10030000BE85059100300D93E1F7CF91DF91AF915C
:10031000BF91EF91FF910F91089540E490E0A0E02C
:100320000E94CB000E94BE000E94EC010E94BB0212
:100330000E94BB020E942A020E943D020E94BB0250
:100340000E94BB020E94BE000E940B020E942A0271
:100350000E94BB020E943D020E94BB020E94BB029F
:100360000E94BE000E942A020E9450020E94BB020C
:100370000E94BB020E94BE000E942A020E946302E9
:100380000E94BB020E94BB029395933059F60E94D3
:1003900076020E94CF010C94C9010C94CD010E94F9
:1003A000BB020E94BB020E94BE000E94BB020E94D0
:1003B000BB020E9495020E94A8020E94BB020E94FA
:1003C000BB020E94BE000E94BB020E94BB020E94B0
:1003D00095020E94A80208950F9303E00F9302E98B
:1003E0000F9305E00F930EE80F930E9474010F9195
:1003F0000F910F910F9103E00F9303EA0F9305E024
:100400000F9304E90F930E9474010F910F910F91C4
:100410000F910F9108950F9303E00F9302E90F934B
:1004200005E00F9304E90F930E9474010F910F915F
:100430000F910F9103E00F9303EA0F9305E00F93E1
:100440000EE80F930E9474010F910F910F910F917D
:100450000F9108950F9300E00F9300E00F930E9417
:100460009A000F910F9103E00F9302E90F930E94FE
:1004700081000F910F910F9108950F9301E00F9359
:1004800000E00F930E949A000F910F9103E00F93E9
:1004900003EA0F930E9481000F910F910F9108952D
:1004A0000F9301E00F9301E00F930E949A000F91C8
:1004B0000F9103E00F9303EA0F930E9481000F91C5
:1004C0000F910F9108950F9301E00F9302E00F93A6
:1004D0000E949A000F910F9103E00F9303EA0F938C
:1004E0000E9481000F910F910F9108950F9303E0E7
:1004F0000F9302E90F9305E00F930AEA0F930E940E
:1005000074010F910F910F910F9103E00F9303EA84
:100510000F9305E00F930AEA0F930E9474010F9165
:100520000F910F910F910F9108950F9300E00F938A
:1005300007E00F930E949A000F910F9103E00F9331
:1005400002E90F930E9481000F910F910F9108957E
:100550000F9301E00F9307E00F930E949A000F9111
:100560000F9103E00F9303EA0F930E9481000F9114
:100570000F910F910895000050E8000060E800001E
:100580006A95E9F75A95C9F74A95A9F708955279F6
:10059000616E0000435343203233303A205370726F
:0E05A000696E67203230313600002A2A0000D2
:00000001FF
