:100000000C9472000C948B000C948B000C948B005D
:100010000C948B000C948B000C948B000C948B0034
:100020000C948B000C948B000C948B000C948B0024
:100030000C948B000C948B000C948B000C948B0014
:100040000C948B000C948B000C948B000C948B0004
:100050000C948B000C948B000C948B000C948B00F4
:100060000C948B000C948B000C948B000C948B00E4
:100070000C948B000C948B000C948B000C948B00D4
:100080000C948B000C948B000C948B000C948B00C4
:100090000C948B000C948B000C948B000C948B00B4
:1000A0000C948B000C948B000C948B000C948B00A4
:1000B0000C948B000C948B000C948B000C948B0094
:1000C0000C948B000C948B000C948B000C948B0084
:1000D0000C948B000C948B000C948B000C948B0074
:1000E0000C948B0011241FBECFEFD1E2DEBFCDBF39
:1000F00000E00CBF12E0A0E0B2E0EEEEF1E000E0C4
:100100000BBF02C007900D92A030B107D9F70E9433
:10011000B1000C94F5000C9400009C012F7330701A
:1001200080FD02C090E001C090E821FD906222FDB8
:10013000986023FD926024FD02C080E001C088E049
:1001400025FD826085B990930B0108958FEF809310
:100150000A0184B987E880937A0080E480937C0068
:100160000895CF93DF938FEF80930A0184B987E8D6
:1001700080937A0080E480937C0080917A00806490
:1001800080937A0080917A0086FDFCCF9091780070
:1001900080917900D82FC0E09E01290F311DC9013F
:1001A00033E0893E930718F080E090E01BC0823373
:1001B000910518F481E090E015C0833C910518F496
:1001C00082E090E00FC021E08C37920718F484E0C1
:1001D00090E008C08B52924018F488E090E002C092
:0E01E00080E190E00E948D00C8CFF894FFCF20
:00000001FF
